:020000040800F2
:100000009805002001010008571E0008C9180008C3
:10001000551E0008ED0600088921000800000000B8
:100020000000000000000000000000005B1E00084F
:10003000EF06000800000000591E00085D1E0008C1
:100040001B0100081B0100081B0100081B01000820
:100050001B0100081B0100081B0100081B01000810
:100060001B0100081B0100081B0100081B01000800
:100070001B0100081B0100081B0100081B010008F0
:100080001B0100081B0100081B0100081B010008E0
:100090001B0100081B0100081B0100081B010008D0
:1000A0001B0100081B0100081B0100081B010008C0
:1000B000C11E00081B0100081B0100081B010008ED
:1000C0001B0100081B0100081B0100081B010008A0
:1000D0001B0100087D2100081B0100081B0100080E
:1000E0001B0100081B0100081B010008DFF80CD0F1
:1000F00000F06CFA004800474923000898050020EA
:100100000648804706480047FEE7FEE7FEE7FEE7B1
:10011000FEE7FEE7FEE7FEE7FEE7FEE7BF1E00089C
:10012000ED000008202A04DB203A21FA02F0002129
:10013000704721FA02F3D040C2F1200291400843F7
:1001400019467047D2B201E000F8012B491EFBD2DC
:1001500070470022F6E710B513460A4604461946D2
:10016000FFF7F0FF204610BDF0B480EA0102D40F83
:100170004200B2EB410F02D20246084611464A0045
:1001800042D0C30DDDB2C1F3C752AD1A202D35DA0E
:10019000C1F3160141F4000204B15242C5F1200638
:1001A00002FA06F12A411044B3EBD05F23D0C4B168
:1001B000012DA0EBC35009DCF0BC4FF0004202EA75
:1001C000C352DBB200F5000000F074B9400000F14A
:1001D000807000EBC350A0F1807040EAD1704900FC
:1001E00009E0490841EAC071A0EBC35000F50000E6
:1001F000400800EBC350F0BC00F053B9614201224B
:1002000002EB4101001BF6E7F0BC704781F00041B2
:10021000AAE780F00040A7E780EA010210B502F0EB
:100220000043400022D04A001FD0010E01EB1261B2
:10023000C0F35600C2F3560240F4000042F400023C
:10024000A0FB022000047F39140400D0401C50EAB7
:10025000124001D44000491EC2B20C0604EBD0107B
:10026000401C4008802A02D003E0002010BD20F08E
:100270000100002900DA0020184310BD2DE9FE4FCF
:10028000804681EA0300C00F0C46009021F0004137
:1002900023F00045B8EB0200A94105D240462146B3
:1002A00090461C460B46024623F00040104347D0C0
:1002B000270DC7F30A00C3F30A510290401A0190B8
:1002C00040286BDAC3F3130040F4801B0098924679
:1002D00020B10023D2EB030A63EB0B0B01985946C4
:1002E000C0F14002504600F0BBF806460D465046AD
:1002F0005946019A00F0C3F810EB08006141002450
:1003000087EA115284EAE7731A4340D0009A62B335
:10031000019A012A4FEA075215DC001B61EB02012A
:100320004FF0004202EA0752CDE90042001C41F5BD
:10033000801132462B4600F0FAF803B0BDE8F08F8A
:1003400040462146F9E7001B61EB0201001C41F524
:10035000801300185B412018A2F5001747EB03013A
:1003600040EAD570B6196D4111E06D084FEA3606C6
:1003700045EAC0754FEA0752001B61EB0201001C01
:1003800041F5801149084FEA3000001951413246C9
:100390002B4603B0BDE8F04F00F0BAB80098012238
:1003A00040000023D0EB020263EBE073009821468B
:1003B0004FEAE074B8EB000061EB0401E9E783F079
:1003C00000435BE781F0004158E770B521F000433E
:1003D00003430CD0C1F30A550024D5EB040564EBAC
:1003E0000403D617AD1AB34102DB0020014670BDED
:1003F000201841EB025170BD96230022114600F0F7
:1004000059B800F0004230F000400AD0C10D01F5AB
:100410006071C0F3160042EA0151C208400711435F
:10042000704700200146704701F0004330B421F0CE
:10043000004150EA010206D00A0DA2F56072C1F334
:100440001301002A02DC30BC00207047440F44EA4C
:10045000C104C100E01830BC00EBC25000F021B86C
:10046000202A04DB203A00FA02F100207047914074
:10047000C2F1200320FA03F3194390407047202A69
:1004800006DBCB17203A41FA02F043EAE07306E0BC
:1004900041FA02F3D040C2F12002914008431946CC
:1004A00070470029A8BF7047401C490008BF20F0D2
:1004B0000100704710B4B0FA80FC00FA0CF050EA6A
:1004C000010404BF10BC704749B1CCF1200421FAEB
:1004D00004F411FA0CF118BF012121430843A3EBE6
:1004E0000C01CB1D4FEA00614FEA102042BF0020F3
:1004F00010BC704700EBC35010440029A4BF10BCCF
:100500007047401C490008BF20F0010010BC704734
:1005100010B5141E73F1000408DA401C41F100010B
:1005200092185B411A4301D120F0010010BD2DE962
:10053000F04D92469B4611B1B1FA81F202E0B0FA59
:1005400080F220329046FFF78BFF04460F4640EAC8
:100550000A0041EA0B0153465A46084313D011469C
:1005600053EA010019D0C8F140025046FFF7DAFD06
:1005700005460E46504659464246FFF771FF08436E
:1005800005D0012004E020463946BDE8F08D00206A
:10059000054346EAE0762C4337430A986305E40AAC
:1005A000A0EB08000022FD0A44EA47540A3002D5B5
:1005B00000200146E9E7010510196941DDE9084518
:1005C00000196941BDE8F04DA2E70000064C074D57
:1005D00006E0E06840F0010394E807009847103413
:1005E000AC42F6D3FFF786FD94230008B42300083D
:1005F00070B5044601F0A6FA6C2001F025FA01F06E
:10060000EFFA204601F020FA01F0EAFA01F09AFA36
:100610006D2001F019FA01F0E3FA01F057F90446F0
:1006200001F0F0F90F4D00228021284600F0C7F9B3
:1006300000224021284600F0C2F9052001F050FEBA
:1006400001224021284600F0BAF9052001F048FEB9
:1006500001228021284600F0B2F9052001F040FE79
:10066000204670BD000801402DE9F041044601F02C
:100670008FFA6C2001F024FA01F0D2FA204601F042
:100680001FFA01F0CDFA01F083FA6D2001F018FA9B
:1006900001F0C6FA01F056F9044601F0C3F9124E12
:1006A0004FF4004500222946304600F088F96F10CB
:1006B00000223946304600F082F9052001F010FE94
:1006C00001223946304600F07AF9052001F008FE93
:1006D00001222946304600F072F9052001F000FEA3
:1006E0002046BDE8F081000000100140FEE77047A1
:1006F00072B6FEE710B590F821100022022905D04D
:100700000421816380F82020012010BD01680B685E
:1007100023F00E030B6001680B6823F001030B60EC
:1007200090F84030C46B012101FA03F3636080F854
:10073000211080F82020104610BD000010B590F860
:1007400021100024022903D00421816301243DE00B
:1007500001680A6822F00E020A6001680A6822F045
:1007600001020A601A4A0168914201D1012121E087
:10077000174A1432914201D110211BE0144A283249
:10078000914201D1891515E0114A3C32914201D1C3
:1007900089140FE00E4A5032914202D14FF4803159
:1007A00008E00B4A6432914202D14FF4801101E01B
:1007B0004FF08071064A083A5160012180F82110FB
:1007C000002180F82010416B01B18847204610BD00
:1007D000080002402DE9F84FDFF8B8910024A9F194
:1007E000040B23460F2709F1040AABF1040EC9E0FC
:1007F0000125A5402A40AA427DD1674ED1F804C008
:10080000ACEB0608B44532D014DCBCF1030F3AD08F
:1008100009DCBCF1000F2AD0BCF1010F1CD0BCF1E7
:10082000020F31D11DE0BCF1110F17D0BCF1120F36
:100830002AD119E0B8F5881F19D006DCB8F5803F39
:1008400015D0B8F5801F1FD111E0B8F5001F0ED0EC
:10085000B8F5041F18D10AE0CB6815E0CB681B1D62
:1008600012E0CB6808330FE0CB680C330CE08B68E8
:100870002BB1012B4FF0080303D0456104E00423A2
:1008800002E0056100E00023FF2A01D8064601E0EE
:1008900000F104064FEA840501D9A5F12005D6F838
:1008A000008007FA05FC28EA0C0803FA05F548EA77
:1008B0000508C6F800804D68ED0062D5374DAE6979
:1008C00046F00106AE61AD6924F0030605F00105AE
:1008D0000095334D06EB050CDCF80850A607360FE3
:1008E00007FA06F825EA0805DFF8B880404503D185
:1008F0004FF0000817E044E0DFF8AC80404502D13B
:100900004FF001080FE0DFF8A480404502D14FF01E
:10091000020808E0DFF89880404502D14FF0030854
:1009200001E04FF0040808FA06F848EA0508CCF898
:1009300008804D68D9F80060ED024D4601D5164398
:1009400000E096432E604D68DAF80060AD0255462F
:1009500001D5164300E096432E604D68DBF8006039
:10096000AD035D4601D5164300E096432E604D6809
:10097000DEF80060ED03754601D5164300E09643AE
:100980002E60641C0D682A46E5407FF431AFBDE857
:10099000F88F000008040140000011100010024010
:1009A0000000014000080140000C0140001001401F
:1009B000001401408068084000D0012070470AB14F
:1009C000016170470904FBE7014880687047000037
:1009D0000000002070B5040025D094F83D000025EB
:1009E00020B984F83C50204600F0B8F8242084F860
:1009F0003D002068016821F0010101602068016864
:100A000041F4004101602068016821F40041016067
:100A100000F01EFA4D4A6168914201D84C4900E04D
:100A20004C49884201D2012070BD4B492368B0FB7C
:100A3000F1F15E6826F03F060E435E606368934204
:100A400006D94FF4967359434FF47A73B1FBF3F11F
:100A50002368491C1E6A26F03F063143196261680B
:100A6000914210D84900401EB0FBF1F2521CC2F373
:100A70000B02042A01D2042022E0B0FBF1F0401C5A
:100A8000C0F30B001CE0A268F2B301EBC10303EB5F
:100A90000116431EB3FBF6F35B1C43F480431B05B6
:100AA00049D092B301EBC10202EB0111401EB0FB31
:100AB000F1F0401CC0F30B0040F4804040F40040D3
:100AC0002168CA694CF6FF739A431043C861D4E9A0
:100AD000071001432068026822F0C0021143016040
:100AE000D4E9030101432068826848F2FF339A4346
:100AF00011438160D4E9050108432168CA6822F0E6
:100B0000FF021043C86001E00EE016E020680168B3
:100B100041F0010101602564202084F83D00256337
:100B200084F83E50002070BD01EB4106431EB3FB2C
:100B3000F6F35B1CB3E70120C2E701EB4101401E65
:100B4000B0FBF1F0401CC0F30B00B7E7A08601003A
:100B500080841E0000093D0040420F0030B585B082
:100B6000002100910191029103911E4D03681E4CDA
:100B7000122103221D48AB4216D1A36943F008039A
:100B8000A361A369039203F008030493C023CDE992
:100B900000316946FFF71EFEE06940F40010E06195
:100BA000E06900F4001019E0114DAB4217D1A369C0
:100BB00043F00803A361A369039203F008030493BD
:100BC0004FF44063CDE900316946FFF703FEE06969
:100BD00040F48000E061E06900F48000049005B01A
:100BE00030BD00000054004000100240000C0140E5
:100BF00000580040024881680278114481607047C3
:100C000000000020074810B5016841F010010160A4
:100C1000032000F075F80F2000F006F800F024F82B
:100C2000002010BD0020024070B50D4D04464FF469
:100C30007A712878B1FBF0F00A490968B1FBF0F04D
:100C400000F0DCFA48B9102C07D200222146501ED1
:100C500000F036F800206C6070BD012070BD00000F
:100C6000000000200C0000200C4808B5816941F00C
:100C700001018161816901F001010091C16941F0C7
:100C80008051C161C06900F0805000900448416803
:100C900021F0E06141F08061416008BD0010024038
:100CA00000000140002809DB00F01F0201219140F3
:100CB0004009800000F1E020C0F8001170470000FA
:100CC000F0B40E4B1B680C46C3F30223C3F10705B7
:100CD000042D00D90425191D072901D2002300E0A5
:100CE000DB1E012606FA05F1491E214099409E406F
:100CF000761E16403143F0BC01F047BA0CED00E01F
:100D0000064900F0070208684FF6FF03184040EA62
:100D10000220034A10430860704700000CED00E019
:100D20000000FA052DE9F0470F46050061D0434E5B
:100D3000306800F00700B84209D2306820F00700A0
:100D400038433060306800F00700B84251D128685D
:100D50003B4C810712D5400703D5606840F4E06042
:100D600060602878000703D5606840F460506060D8
:100D70006068A96820F0F000084360602878C00728
:100D800028D06868012810D02168022810D089076F
:100D900000292EDA616821F0030101436160FFF749
:100DA00013FE804641F288390DE021688903EFE7A0
:100DB0008901EDE7FFF708FEA0EB0801494502D9DC
:100DC0000320BDE8F0876068696800F00C00B0EBB4
:100DD000810FEFD1306800F00700B8420BD93068BE
:100DE00020F0070038433060306800F00700B84258
:100DF00001D00120E5E72878400705D56068E9685B
:100E000020F4E060084360602878000706D5606839
:100E1000296920F4605040EAC100606000F038F8B1
:100E20006168084AC1F30311515CC8400649086073
:100E300006480068FFF7F8FE0020C2E700200240E5
:100E4000001002407C2300080C0000200400002059
:100E50000448054900684968044AC1F30221515C0D
:100E6000C84070470C000020001002408C2300088E
:100E70000448054900684968044AC1F3C221515C2D
:100E8000C84070470C000020001002408C2300086E
:100E90000E4A51680E4801F00C03042B11D0082BA8
:100EA0000FD10C48C1F38343C903C05C0AD5516814
:100EB000084AC1F34041921E515C054A5043B0FBC1
:100EC000F1F07047044948437047000000100240A9
:100ED00000127A006C23000800093D002DE9F84F4C
:100EE000040070D02078C04DC00749D06868C0F3B6
:100EF0008100012807D06868C0F38100022809D169
:100F00006868C00306D52868800339D56068002862
:100F1000E7D035E06068B0F5803F0BD010B1B0F598
:100F2000A02F11D0286820F480302860286820F491
:100F3000802002E0286840F480302860606890B12A
:100F4000FFF742FD06460AE0286840F4802028604A
:100F5000F0E700BFFFF738FD801B642873D82868CE
:100F60008003F7D50CE0FFF72FFD064605E000BF34
:100F7000FFF72AFD801B6428F0D828688003F7D487
:100F800020789A4E80074FF001094FF0000839D5BC
:100F9000686810F00C0F07D06868C0F38100022861
:100FA00009D16868C00306D42868800714D5206971
:100FB000012808D110E02069B0B1C6F80090FFF711
:100FC00003FD074605E00AE1FFF7FEFCC01B02280F
:100FD000C4D828688007F7D52868616920F0F80030
:100FE00040EAC10028600DE0C6F80080FFF7ECFC85
:100FF000074604E0FFF7E8FCC01B022823D8286856
:101000008007F7D4207800072CD57948A169D9B199
:10101000C0F80090FFF7D8FC074604E0FFF7D4FCC7
:10102000C01B02280FD8686A8007F7D571484FF4B3
:10103000FA510068B0FBF1F0009000BF0098411E2B
:101040000091FAD20EE080E0C0F80080FFF7BCFC0F
:10105000074604E0FFF7B8FCC01B022875D8686A91
:101060008007F7D42078400760D5E8690027C000E2
:1010700008D4E86940F08050E861E869012700F091
:10108000805000905C480168C90513D4016883460C
:1010900041F480710160FFF797FC824606E000BFD3
:1010A000FFF792FCA0EB0A0064284ED8DBF80000A2
:1010B000C005F5D5E06801280AD008B1052813D08D
:1010C000286A20F001002862286A20F0040002E06B
:1010D000286A40F001002862E06841F2883B98B13C
:1010E000FFF772FC82460BE0286A40F00400286299
:1010F000EEE700BFFFF768FCA0EB0A0159455AD89C
:10110000286A8007F6D50CE0FFF75EFC824605E012
:10111000FFF75AFCA0EB0A0159454CD8286A800712
:10112000F6D41FB1E86920F08050E861E06988B327
:101130006968C1F38101022944D00228C6F86080A1
:1011400004D0FFF741FC044638E034E0FFF73CFCF4
:10115000074604E0FFF738FCC01B02282BD828689C
:101160008001F7D4206AB0F5803F05D16868A16896
:1011700020F4003008436860D4E908010843696836
:1011800021F4741108436860C6F86090FFF71CFCF6
:10119000044606E025E000BFFFF716FC001B02280E
:1011A00009D828688001F7D51BE000BFFFF70CFCC9
:1011B000001B022802D90320BDE8F88F28688001AF
:1011C000F4D40EE00128F7D06868226A00F4803178
:1011D000914204D1616A00F47010884201D001206C
:1011E000EAE70020E8E70000001002400000424269
:1011F000800442420C0000200070004010B5401EE8
:10120000B0F1807F01D3012010BD4FF0E024606178
:101210000F21601700F0B9FF0020A06107202061B6
:10122000002010BD7047704770B590F83C20012A2F
:1012300026D0012480F83C40022280F83D2003683B
:101240005A689D6822F070060A6832435A600D4B56
:1012500002689A4208D0B2F1804F05D00A4B9A42F8
:1012600002D00A4B9A4204D1496825F08003194301
:10127000916080F83D40002180F83C10084670BD28
:10128000022070BD002C0140000400400008004016
:1012900010B5040003D094F83D0010B107E0012020
:1012A00010BD002084F83C00204600F01FF802200A
:1012B00084F83D00211D206800F008FE012084F81C
:1012C000460084F83E0084F83F0084F8400084F82B
:1012D000410084F8420084F8430084F8440084F814
:1012E000450084F83D00002010BD000008B50068EE
:1012F000B0F1804F12D10A48C16941F00101C161CA
:10130000C069002200F00100009011461C20FFF788
:10131000D7FCBDE808401C20FFF7C4BC08BD000096
:101320000010024070B5044690F83C0000250128EA
:1013300017D0012684F83C60022084F83D00206824
:10134000826822F0770222F47F4282600868502887
:1013500038D00DDC20284FD005DC90B3102811D1F7
:101360004AE0022070BD302846D040280AD13BE038
:1013700060282FD070280DD0B0F5805F03D0B0F575
:10138000005F12D0012584F83D60002084F83C0005
:10139000284670BDCB68D1E90121206800F0CCFD62
:1013A0002068816841F0770109E0CB68D1E901212B
:1013B000206800F0C1FD2068816841F480418160AF
:1013C000E1E719E0CA684968206800F0C7FD5021CC
:1013D000206806E0CA684968206800F0D0FD6021F6
:1013E000206800F0B3FDCEE7CA684968206800F0C5
:1013F000B5FD40212068F4E7226801461046F0E779
:10140000704770B50446006801694FF00005C94394
:10141000890715D4C168C943890711D4E91E016140
:1014200001202077206880698007204602D0FFF7DE
:10143000E7FF04E000F098F8204600F096F82577E2
:1014400020680169C943490717D4C168C9434907DE
:1014500013D46FF0040101610220207720688069B5
:1014600010F4407F204602D0FFF7CAFF04E000F0EE
:101470007BF8204600F079F8257720680169C94398
:10148000090716D4C168C943090712D46FF00801CF
:101490000161042020772068C0698007204602D0BF
:1014A000FFF7AEFF04E000F05FF8204600F05DF8C3
:1014B000257720680169C943C90617D4C168C943A3
:1014C000C90613D46FF0100101610820207720684D
:1014D000C06910F4407F204602D0FFF791FF04E07E
:1014E00000F042F8204600F040F8257720680169B6
:1014F000C943C90708D1C168C943C90704D1891EB6
:101500000161204600F032F820680169C9430906EC
:1015100009D4C168C943090605D46FF0800101618F
:101520002046FFF77FFE20680169C943490609D4B8
:10153000C168C943490605D46FF0400101612046E6
:1015400000F015F820680169C94389060BD4C16809
:10155000C943890607D46FF0200101612046BDE828
:101560007040FFF760BE70BD7047704770477047AE
:1015700070477047F8B5016804460868CA684B6947
:1015800010F00F0F4FF000055AD003F0010602F4DF
:101590009077374365D0C10705D0D10503D5616C7D
:1015A00041F001016164410705D5D90703D0616CA1
:1015B00041F002016164810705D5D90703D0616C50
:1015C00041F004016164010707D502F020013143B5
:1015D00003D0616C41F008016164616C00293BD06B
:1015E000800604D5900602D5204600F009FD20684B
:1015F0004069616CC0F3801001F00801014320468E
:101600002BD000F0D6FC20684069400621D5206828
:10161000143050E8001F21F0400140E80012002A79
:10162000F5D1E06BA8B16D494163E06BFFF786F837
:10163000002811D0E06B416B01B0BDE8F0400847D5
:1016400083060ED593060CD52046BDE8F84000F081
:10165000D7BC2046FFF78DFFF8BDFFF78AFF656412
:10166000F8BD266B2023012E7CD1C6067AD5D6067E
:1016700078D508684868009048694FF0020640062F
:1016800040D5E16B086840680004000CE8D0A28DEA
:101690008242E5D9E085886920282DD020680C3069
:1016A00050E8001F21F4807140E80012002AF5D1B3
:1016B0002168143151E8000F20F0010041E80002D8
:1016C000002AF5D12068143050E8001F21F04001B5
:1016D00040E80012002AF5D184F8423025632068E2
:1016E0000C3050E8001F21F0100140E80012002AE1
:1016F000F5D1E06BFEF7FEFF6663A08DE18D401A29
:1017000081B22AE0A08DE18D401A81B2E08D0028DF
:10171000A6D00029A4D022680C3252E8000F20F491
:10172000907042E80007002FF5D12068143050E88F
:10173000002F22F0010240E80027002FF5D184F8A5
:101740004230256320680C3050E8002F22F0100250
:1017500040E80023002BF5D166632046FFF708FF21
:10176000F8BDFFE705062BD5150629D594F84100ED
:101770002128F5D1A068B0F5805F01D12069B0B112
:10178000206A411C2162216800784860E08C401E7C
:101790000004000CE084E3D12068C16821F08001DE
:1017A000C1602068C16841F04001C160D8E7206A8B
:1017B0000088C0F308004860206A801C2062E5E7CA
:1017C0004006CDD55006CBD5CA68204622F040024F
:1017D000CA6084F8413000F076F8C1E7A31F000822
:1017E00070B5040004D094F84100002510B106E063
:1017F000012070BD84F84050204600F023F82420DA
:1018000084F841002068C16821F40051C16020467D
:1018100000F058FC2068016921F4904101612068C2
:10182000416921F02A0141612068C16841F40051F9
:10183000C1606564202084F8410084F8420065633B
:10184000002070BD30B585B000240094019402944E
:1018500003940068184988422CD11848816941F4E2
:1018600080418161816901F480410491816941F085
:10187000040181618069124D00F0040004904FF46E
:1018800000700090022001900320039069462846D2
:10189000FEF7A0FF2815CDE900046946284602940A
:1018A000FEF798FF002211462520FFF709FA2520B0
:1018B000FFF7F8F905B030BD0038014000100240D4
:1018C0000008014070477047FEE700002DE9F04135
:1018D0000024254600F072F8194F002240213846B6
:1018E000FFF76DF8052000F0FBFC012601224021E6
:1018F0003846FFF764F8052000F0F2FC80213846F6
:10190000FFF758F8012813D0C4F1070006FA00F0D9
:101910008543002240213846FFF751F8052000F0AA
:10192000DFFC641CE4B2082CE0D32846BDE8F0815B
:10193000C4F1070106FA01F02843C5B2E9E7000047
:10194000000801402DE9F0470024254600F048F842
:10195000194E4FF48047002239463046FFF72FF8E2
:10196000052000F0BDFC4FF400494FF001080122B2
:1019700039463046FFF723F8052000F0B1FC494610
:101980003046FFF717F80128C4F1070108FA01F003
:101990000FD08543002239463046FFF710F8052066
:1019A00000F09EFC641CE4B2082CE0D32846BDE89D
:1019B000F0872843C5B2EDE70010014006488021BA
:1019C000016000214160012181600321C160014665
:1019D0000248FEF7FFBE0000780100200008014029
:1019E00006484FF4004101600021416001218160FF
:1019F0000321C16001460248FEF7ECBE88010020C9
:101A00000010014005488021016001214160816092
:101A10000321C16001460248FEF7DCBE78010020C8
:101A20000008014006484FF4004101600121416077
:101A300081600321C16001460248FEF7CBBE000071
:101A400088010020001001402DE9F04107460024E4
:101A5000FFF7D8FF194D002280212846FEF7AFFF7F
:101A6000002240212846FEF7AAFF052000F038FC9E
:101A70005FF00106C4F1070106FA01F0384201D017
:101A8000012200E0002280212846FEF798FF052071
:101A900000F026FC012240212846FEF790FF052099
:101AA00000F01EFC002240212846FEF788FF641C3F
:101AB000E4B2082CDED3BDE8F0810000000801404C
:101AC0002DE9F04707460024FFF7ACFF1C4D4FF40B
:101AD0000046002231462846FEF771FF4FF4804948
:101AE000002249462846FEF76AFF052000F0F8FB71
:101AF000B2464FF001084E46C4F1070108FA01F062
:101B0000384201D0012200E0002251462846FEF76B
:101B100056FF052000F0E4FB012231462846FEF77F
:101B20004EFF052000F0DCFB002231462846FEF780
:101B300046FF641CE4B2082CDED3BDE8F087000049
:101B40000010014010B5FFF75DFF104C012280210D
:101B50002046FEF734FF012240212046FEF72FFFEA
:101B6000052000F0BDFB002280212046FEF727FF64
:101B7000052000F0B5FB002240212046FEF71FFFA4
:101B8000BDE81040052000F0ABBB0000000801409C
:101B900070B5FFF747FF0122104DD40321462846B8
:101BA000FEF70DFF0122960331462846FEF707FF98
:101BB000052000F095FB002221462846FEF7FFFE97
:101BC000052000F08DFB002231462846FEF7F7FE87
:101BD000BDE87040052000F083BB0000001001400C
:101BE00070B50024FFF7EAFE0C4D01224021284683
:101BF000FEF7E5FE052000F073FB80212846FEF786
:101C0000D9FE012800D10124002240212846FEF7F8
:101C1000D6FE052000F064FB204670BD00080140A0
:101C200070B50024FFF7DCFE01220D4D960331460E
:101C30002846FEF7C4FE052000F052FB710028463E
:101C4000FEF7B8FE012800D10124002231462846C3
:101C5000FEF7B5FE052000F043FB204670BD0000F6
:101C6000001001402DE9F04786B000242D48009473
:101C7000019402940394816941F0100181618169AA
:101C800001F010010491816941F0200181618169B5
:101C900001F020010491816941F0040181618169B1
:101CA00001F004010491816941F0080181618069BA
:101CB000DFF8748000F008004FF4404504900022E3
:101CC00029464046FEF77BFEDFF860900022C021E7
:101CD0004846FEF774FEDFF858A04CF230070022A9
:101CE00039465046FEF76BFE009502260125039605
:101CF000CDE9015469464046FEF76CFDC020CDE9B0
:101D00000005CDE9024669464846FEF763FD0097A7
:101D10000396CDE9015469465046FEF75BFD06B0D7
:101D2000BDE8F087001002400010014000080140AB
:101D3000000C01400D4810B50B4901600C49416091
:101D400000214FF480428160C0E90312416181614A
:101D5000C1610162FEF73EFE002803D0BDE81040DD
:101D6000FEF7C6BC10BD000000540040400000203B
:101D7000A08601000D4810B50B4901600C49416077
:101D800000214FF480428160C0E90312416181610A
:101D9000C1610162FEF71EFE002803D0BDE81040BD
:101DA000FEF7A6BC10BD00000058004094000020C3
:101DB000A086010010B586B0002417480094019455
:101DC0000294039404944FF080410594016044F61A
:101DD0001F61C0E901144FF4FA71C0E90314846172
:101DE000FFF756FA08B1FEF783FC4FF480500090DD
:101DF00069460948FFF796FA08B1FEF779FC0494A2
:101E000004A905480594FFF70FFA002801D0FEF752
:101E10006FFC06B010BD0000E80000200C4810B5B3
:101E20000A4901604FF4E1314160002181600C22D8
:101E3000C160C0E904128161C161FFF7D1FC0028D3
:101E400003D0BDE81040FEF753BC10BD0038014080
:101E500030010020FEE7FEE770477047FEF7CABE7C
:101E600030B58FB028216846FEF773F914210AA80F
:101E7000FEF76FF901210804CDE900100024029457
:101E800002250491CDE907504FF4E010099068460F
:101E9000FFF724F808B172B6FEE70F20CDE90A0576
:101EA0004FF48060CDE90C4002210AA80E94FEF7A1
:101EB00039FF002801D072B6FEE70FB030BD704781
:101EC0000148FFF79EBA0000E8000020F0B5026864
:101ED000164B174C174D4FF08047984205D0B8422B
:101EE00003D0A04201D0A84203D122F070064A6874
:101EF0003243984205D0B84203D0A04201D0A84254
:101F000003D122F44074CA6822434C6922F0800253
:101F1000224302608A68C2620A688262984201D1E2
:101F20000969016301214161F0BD0000002C0140FD
:101F3000000400400008004010B5846842EA032213
:101F400024F47F440A432243826010BD826822F059
:101F500070020A4342F007018160704710B5036ABE
:101F6000046A24F001040462846924F0F00444EA61
:101F7000021423F00A020A438461026210BD10B504
:101F8000036A046A24F010040462846923F0A00345
:101F900024F4704444EA023243EA0111826101628E
:101FA00010BD10B5406A0021C185C184FFF7E1FA78
:101FB00010BD01680C3151E8002F22F4907241E805
:101FC0000023002BF5D10168143151E8002F22F0D5
:101FD000010241E80023002BF5D1016B012909D151
:101FE00001680C3151E8002F22F0100241E8002373
:101FF000002BF5D1202180F84210002101637047A9
:1020000008B590F84210222901D0022008BD82684C
:102010004FF480539A4201D1016921B1816A9A42F9
:102020001BD04AB10AE00268816A5268C2F3080212
:102030000A80816A891C08E0026972B102685268EC
:1020400002F07F020A70816A491C8162C18D491EBB
:102050000904090CC18503D01BE002685268F1E74E
:102060000168CA6822F02002CA600168CA6822F4C6
:102070008072CA6001684A6922F001024A61202127
:1020800080F8421000214163026B012A03D0FFF760
:1020900019FC002008BD016301680C3151E8002FD4
:1020A00022F0100241E80023002BF5D101680A68F4
:1020B000D20602D50A6849680091818DFFF758FA67
:1020C000E7E7000070B5044600680169E26821F4A2
:1020D0004051114301612169A068084361690843C7
:1020E0002168CA6841F20C639A430243CA602068BF
:1020F0004169A26921F44071114341611E49206880
:10210000884202D1FEF7B4FE01E0FEF7A1FE00EB2B
:10211000C00101EB0012606864218000B2FBF0F3A3
:10212000B3FBF1F36FF018067343B2FBF0F5B2FBAB
:10213000F0F605EB8305322303EB0515B5FBF1F54E
:10214000B6FBF1F605F0F00505EB0615B2FBF0F66F
:10215000B2FBF0F0B0FBF1F06FF01802504306EB69
:10216000800003EB0010B0FBF1F0216800F00F00DD
:102170002844886070BD0000003801400148FFF726
:10218000F9B9000030010020FEE70907090E002818
:1021900004DB00F1E02080F80014704700F00F002D
:1021A00000F1E02080F8141D704702E008C8121FFB
:1021B00008C1002AFAD170477047002001E001C130
:1021C000121F002AFBD170472DE9F0410C20FEF7C9
:1021D0004BFA04460D20FEF747FA40EA0420FEF7CA
:1021E0000BF9194C05462168FEF710F84FF400076B
:1021F0000646B84201DA86F00040B0F18A4F0EDDA3
:102200006068FEF7FEF8BE424FF0000201DB0F4BA4
:1022100000E00F4BFEF732F8FEF706F96060284643
:102220002560FEF7EEF86FF00B02FEF7CEF80646DB
:102230000D466068FEF7E5F832462B46FEF71EF8BD
:10224000BDE8F041FEF7F0B8380000200000F0BF14
:102250000000F03F2DE9F0410C20FEF7C9F90446DB
:102260000D20FEF7C5F940EA0420FEF7C5F8194C29
:1022700005462168FDF7CAFF4FF400070646B8423D
:1022800001DA86F00040B0F18A4F0EDD6068FEF79B
:10229000B8F8BE424FF0000201DB0F4B00E00F4BDD
:1022A000FDF7ECFFFEF7C0F8606028462560FEF7FA
:1022B000A8F86FF00B02FEF788F806460D46606836
:1022C000FEF79FF832462B46FDF7D8FFBDE8F041F8
:1022D000FEF7AAB8300000200000F0BF0000F03F79
:1022E00070B54FF0E024002265690949A3690968C7
:1022F0004843A1699942FCD002D2A3EB010302E05A
:10230000A5EB010633441A440B468242F1D370BD5B
:102310001000002070B50A4C206800280ED0FFF78E
:1023200099FF084D2946FDF777FF6060FFF74CFFE6
:102330002946FDF771FFA0600020206070BD0000FD
:10234000140000200000B443FEF75CFCFFF788FD9A
:10235000FFF788FCFFF70EFDFFF760FDFFF7EAFCD3
:10236000FFF728FDFFF7D6FFFEE701020203040591
:10237000060708090A0B0C0D0E0F101000000000D4
:102380000000000001020304060708090000000025
:1023900001020304B42300080000002040000000F4
:1023A000AA210008F423000840000020580500007E
:1023B000BA21000801000000100000000000000029
:1023C0000024F400000000000100000000000000F4
:1023D00000000000000000000000000000000000FD
:1023E00000000000000000000000000000000000ED
:0423F00000000000E9
:04000005080000ED02
:00000001FF
