:020000040800F2
:10000000F8050020010100088B2B0008B31F000831
:10001000892B0008A3090008C52F00080000000074
:100020000000000000000000000000008F2B00080E
:10003000A5090008000000008D2B0008212C0008F5
:100040001B0100081B0100081B0100081B01000820
:100050001B0100081B0100081B0100081B01000810
:100060001B0100081B0100081B0100081B01000800
:100070001B0100081B0100081B0100081B010008F0
:100080001B0100081B0100081B0100081B010008E0
:100090001B0100081B0100081B0100081B010008D0
:1000A0001B0100081B0100081B0100081B010008C0
:1000B000852C00081B0100081B0100081B0100081B
:1000C0001B0100081B0100081B0100081B010008A0
:1000D0001B010008B92F00081B0100081B010008C4
:1000E0001B0100081B0100081B010008DFF80CD0F1
:1000F00000F0A0FB00480047B9340008F8050020D4
:100100000648804706480047FEE7FEE7FEE7FEE7B1
:10011000FEE7FEE7FEE7FEE7FEE7FEE7832C0008CA
:10012000ED000008202A04DB203A21FA02F0002129
:10013000704721FA02F3D040C2F1200291400843F7
:1001400019467047D2B201E000F8012B491EFBD2DC
:1001500070470022F6E710B513460A4604461946D2
:10016000FFF7F0FF204610BDF0B480EA0102D40F83
:100170004200B2EB410F02D20246084611464A0045
:1001800042D0C30DDDB2C1F3C752AD1A202D35DA0E
:10019000C1F3160141F4000204B15242C5F1200638
:1001A00002FA06F12A411044B3EBD05F23D0C4B168
:1001B000012DA0EBC35009DCF0BC4FF0004202EA75
:1001C000C352DBB200F5000000F0A8BA400000F115
:1001D000807000EBC350A0F1807040EAD1704900FC
:1001E00009E0490841EAC071A0EBC35000F50000E6
:1001F000400800EBC350F0BC00F087BA6142012216
:1002000002EB4101001BF6E7F0BC704781F00041B2
:10021000AAE780F00040A7E780EA010210B502F0EB
:100220000043400022D04A001FD0010E01EB1261B2
:10023000C0F35600C2F3560240F4000042F400023C
:10024000A0FB022000047F39140400D0401C50EAB7
:10025000124001D44000491EC2B20C0604EBD0107B
:10026000401C4008802A02D003E0002010BD20F08E
:100270000100002900DA0020184310BD30B480EAE4
:10028000010202F0004530F0004221F0004013D09E
:1002900090B1C30DD40DC2F31601C0F31600E41AD9
:1002A00041F4000140F400027D34914201D3641C0A
:1002B00000E04900002C02DA30BC002070474FF407
:1002C00000000023914201D3891A034340084FEAFA
:1002D0004101F7D151B1914202D14FF0004105E007
:1002E00002D24FF0010101E06FF0010103EBC450B5
:1002F000284430BC00F009BA420005D0C0F3C75210
:100300005242914201DC0020704700EBC15070471F
:100310002DE9FE4F804681EA0300C00F0C46009095
:1003200021F0004123F00045B8EB0200A94105D2BD
:100330004046214690461C460B46024623F00040AC
:10034000104347D0270DC7F30A00C3F30A510290A8
:10035000401A019040286BDAC3F3130040F4801B6D
:100360000098924620B10023D2EB030A63EB0B0BFB
:1003700001985946C0F14002504600F0A5F90646E2
:100380000D4650465946019A00F0ADF910EB0800B1
:100390006141002487EA115284EAE7731A4340D08E
:1003A000009A62B3019A012A4FEA075215DC001B3A
:1003B00061EB02014FF0004202EA0752CDE9004230
:1003C000001C41F5801132462B4600F0E4F903B0E1
:1003D000BDE8F08F40462146F9E7001B61EB0201C2
:1003E000001C41F5801300185B412018A2F500178E
:1003F00047EB030140EAD570B6196D4111E06D0875
:100400004FEA360645EAC0754FEA0752001B61EB1A
:100410000201001C41F5801149084FEA3000001923
:10042000514132462B4603B0BDE8F04F00F0A4B96D
:100430000098012240000023D0EB020263EBE0733E
:10044000009821464FEAE074B8EB000061EB04012C
:10045000E9E783F000435BE781F0004158E72DE9CD
:10046000FE4F81EA030404F0004421F000410094AF
:100470004FF0000B23F0004350EA01045ED052EA33
:1004800003045BD0C3F30A54C1F30A552C44A4F20D
:10049000F3340194A0FB0254C1F3130141F4801121
:1004A000C3F3130343F4801301FB024400FB034E28
:1004B000840A970A44EA815447EA8357A4FB0768F1
:1004C00002958D0A05FB07854FEA932C04FB0C541B
:1004D0002705029D4FEA065847EA1637B5EB08058F
:1004E0006EEB070C870E920E47EA811742EA8312E1
:1004F000A7FB0201B6EB0B0164EB00042B0D43EAF2
:100500000C335E1844EB1C50DA465146E7FB0201FF
:10051000C5F313044FEA0B3343EA14534FEA043292
:10052000019C43EA0603A4F10C040294009CCDE96B
:1005300000B400F030F903B0BDE8F08F00200146B0
:10054000F9E72DE9F04D81EA030404F0004B21F0B6
:10055000004514464FF0000A23F0004150EA05021E
:1005600020D054EA01021DD0C5F30A570246C5F354
:100570001303C1F31300C1F30A5640F4801543F48A
:100580008013A7EB0608101BD64608F2FD3873EB64
:10059000050002D308F1010801E092185B41B8F1AF
:1005A000000F03DA00200146BDE8F08D00204FF473
:1005B0008011064684460EE0171B73EB050705D332
:1005C000121B63EB050306434CEA010C49084FEA92
:1005D000300092185B4150EA0107EDD152EA030066
:1005E00012D082EA040083EA0501084305D0101BFB
:1005F000AB4106D20122002306E000224FF0004367
:1006000002E06FF0010253101AEB06004CEB0851A8
:1006100010EB0A0041EB0B01BDE8F04D00F0ACB867
:1006200070B521F0004303430CD0C1F30A550024F8
:10063000D5EB040564EB0403D617AD1AB34102DB16
:100640000020014670BD201841EB025170BDC10F62
:1006500080EAE0700844CA079623002100F05EB8E3
:1006600096230022114600F059B800F0004230F005
:1006700000400AD0C10D01F56071C0F3160042EAD6
:100680000151C208400711437047002001467047DE
:1006900001F0004330B421F0004150EA010206D0DD
:1006A0000A0DA2F56072C1F31301002A02DC30BC0E
:1006B00000207047440F44EAC104C100E01830BC78
:1006C00000EBC25000F021B8202A04DB203A00FAE7
:1006D00002F1002070479140C2F1200320FA03F399
:1006E000194390407047202A06DBCB17203A41FA85
:1006F00002F043EAE07306E041FA02F3D040C2F1AF
:10070000200291400843194670470029A8BF70474E
:10071000401C490008BF20F00100704710B4B0FA37
:1007200080FC00FA0CF050EA010404BF10BC7047D2
:1007300049B1CCF1200421FA04F411FA0CF118BFEC
:10074000012121430843A3EB0C01CB1D4FEA0061BB
:100750004FEA102042BF002010BC704700EBC3508E
:1007600010440029A4BF10BC7047401C490008BFBA
:1007700020F0010010BC704710B5141E73F1000486
:1007800008DA401C41F1000192185B411A4301D183
:1007900020F0010010BD2DE9F04D92469B4611B1AD
:1007A000B1FA81F202E0B0FA80F220329046FFF70F
:1007B0008BFF04460F4640EA0A0041EA0B0153460C
:1007C0005A46084313D0114653EA010019D0C8F124
:1007D00040025046FFF7A6FC05460E4650465946D5
:1007E0004246FFF771FF084305D0012004E0204690
:1007F0003946BDE8F08D0020054346EAE0762C43FB
:1008000037430A986305E40AA0EB08000022FD0ABA
:1008100044EA47540A3002D500200146E9E70105C1
:1008200010196941DDE9084500196941BDE8F04D3D
:10083000A2E70000064C074D06E0E06840F0010327
:1008400094E8070098471034AC42F6D3FFF752FC07
:10085000183900083839000870B5044601F09AFFCD
:100860006C2001F0D7FE02F033F8204601F0D2FEF2
:1008700002F02EF801F08EFF6D2001F0CBFE02F0A9
:1008800027F801F0A9FD044601F090FE0F4D00226B
:100890008021284600F0F5F900224021284600F08A
:1008A000F0F9052002F06CFD01224021284600F0FD
:1008B000E8F9052002F064FD01228021284600F0BD
:1008C000E0F9052002F05CFD204670BD0008014003
:1008D0002DE9F041044601F083FF6C2001F0D6FEC3
:1008E00002F016F8204601F0D1FE02F011F801F0F6
:1008F00077FF6D2001F0CAFE02F00AF801F0A8FDB2
:10090000044601F063FE124E4FF4004500222946D2
:10091000304600F0B6F96F1000223946304600F03C
:10092000B0F9052002F02CFD01223946304600F0D6
:10093000A8F9052002F024FD01222946304600F0E6
:10094000A0F9052002F01CFD2046BDE8F081000062
:100950000010014010B5044601F06AFF6C2001F060
:10096000D7FE01F0F7FF204601F0D2FE01F0F2FFC2
:1009700001F05EFF6D2001F0CBFE01F0EBFF01F016
:10098000A3FD044601F07CFF204610BD10B50C20ED
:10099000FFF7E0FF04460D20FFF7DCFF40EA0420EC
:1009A00010BDFEE7704772B6FEE7002903D010F0D5
:1009B000FF4F00D00860704710B590F8211000225A
:1009C000022905D00421816380F82020012010BD78
:1009D00001680B6823F00E030B6001680B6823F0BD
:1009E00001030B6090F84030C46B012101FA03F35E
:1009F000636080F8211080F82020104610BD0000B0
:100A000010B590F821100024022903D0042181633D
:100A100001243DE001680A6822F00E020A600168C4
:100A20000A6822F001020A601A4A0168914201D163
:100A3000012121E0174A1432914201D110211BE01B
:100A4000144A2832914201D1891515E0114A3C32ED
:100A5000914201D189140FE00E4A5032914202D1E5
:100A60004FF4803108E00B4A6432914202D14FF4D6
:100A7000801101E04FF08071064A083A516001216F
:100A800080F82110002180F82010416B01B18847C7
:100A9000204610BD080002402DE9F84FDFF8B8915C
:100AA0000024A9F1040B23460F2709F1040AABF136
:100AB000040EC9E00125A5402A40AA427DD1674E17
:100AC000D1F804C0ACEB0608B44532D014DCBCF15C
:100AD000030F3AD009DCBCF1000F2AD0BCF1010FA2
:100AE0001CD0BCF1020F31D11DE0BCF1110F17D0A9
:100AF000BCF1120F2AD119E0B8F5881F19D006DC15
:100B0000B8F5803F15D0B8F5801F1FD111E0B8F5BA
:100B1000001F0ED0B8F5041F18D10AE0CB6815E00D
:100B2000CB681B1D12E0CB6808330FE0CB680C3399
:100B30000CE08B682BB1012B4FF0080303D045610B
:100B400004E0042302E0056100E00023FF2A01D84D
:100B5000064601E000F104064FEA840501D9A5F13B
:100B60002005D6F8008007FA05FC28EA0C0803FAED
:100B700005F548EA0508C6F800804D68ED0062D525
:100B8000374DAE6946F00106AE61AD6924F003064B
:100B900005F001050095334D06EB050CDCF8085017
:100BA000A607360F07FA06F825EA0805DFF8B88029
:100BB000404503D14FF0000817E044E0DFF8AC8077
:100BC000404502D14FF001080FE0DFF8A480404516
:100BD00002D14FF0020808E0DFF89880404502D1CA
:100BE0004FF0030801E04FF0040808FA06F848EA5D
:100BF0000508CCF808804D68D9F80060ED024D4634
:100C000001D5164300E096432E604D68DAF8006087
:100C1000AD02554601D5164300E096432E604D685F
:100C2000DBF80060AD035D4601D5164300E0964356
:100C30002E604D68DEF80060ED03754601D5164361
:100C400000E096432E60641C0D682A46E5407FF460
:100C500031AFBDE8F88F000008040140000011101A
:100C6000001002400000014000080140000C01405B
:100C700000100140001401408068084000D00120AD
:100C800070470AB1016170470904FBE701488068B9
:100C9000704700000000002070B5040025D094F8D3
:100CA0003D00002520B984F83C50204600F076FA3B
:100CB000242084F83D002068016821F001010160D2
:100CC0002068016841F4004101602068016821F456
:100CD0000041016000F0DCFB4D4A6168914201D89F
:100CE0004C4900E04C49884201D2012070BD4B497B
:100CF0002368B0FBF1F15E6826F03F060E435E60AC
:100D00006368934206D94FF4967359434FF47A734C
:100D1000B1FBF3F12368491C1E6A26F03F063143FC
:100D200019626168914210D84900401EB0FBF1F28F
:100D3000521CC2F30B02042A01D2042022E0B0FBB1
:100D4000F1F0401CC0F30B001CE0A268F2B301EB11
:100D5000C10303EB0116431EB3FBF6F35B1C43F424
:100D600080431B0549D092B301EBC10202EB011194
:100D7000401EB0FBF1F0401CC0F30B0040F480407B
:100D800040F400402168CA694CF6FF739A4310434F
:100D9000C861D4E9071001432068026822F0C0024C
:100DA00011430160D4E9030101432068826848F2DD
:100DB000FF339A4311438160D4E905010843216858
:100DC000CA6822F0FF021043C86001E00EE016E09E
:100DD0002068016841F0010101602564202084F849
:100DE0003D00256384F83E50002070BD01EB4106B4
:100DF000431EB3FBF6F35B1CB3E70120C2E701EB34
:100E00004101401EB0FBF1F0401CC0F30B00B7E7FE
:100E1000A086010080841E0000093D0040420F00B2
:100E20002DE9F84F0025DDF82890984617468A46A8
:100E300004460095FFF72AFF064694F83D00202857
:100E40007AD11923012286492046009601F0BAF989
:100E50000028F5D194F83C0001286DD0012084F8D9
:100E60003C0020680168C90703D1016841F0010115
:100E700001602068016821F400610160222084F88B
:100E80003D00102084F83E0025646762A4F82A80A3
:100E9000608D20857348E06233464A4651462046BD
:100EA00001F0A0F800287CD1208DDFF8BC8120273C
:100EB00068B1012814D00228206801681ED041F4CE
:100EC000806101602068416980690090BBE0206812
:100ED000416981690091016841F400710160B2E0EB
:100EE0002068016821F48061016072B62068416960
:100EF00081690091016841F400710AE041F40061E8
:100F0000016072B62068416981690091016821F42D
:100F10008061016062B696E0032865D801280CD094
:100F200002284B464FF000024146204600960BD067
:100F300001F048F9A8BB0CE090E032464946204653
:100F400001F0E6F968BB71E001F03CF948BB72B60C
:100F500033E02068016821F48061016072B6206886
:100F60000069616A0870606A401C6062208D401EE2
:100F70002085608D401E60853C4846F2A8110068BF
:100F8000B0FBF1F0C0EBC00000EB80000090401E11
:100F9000009007D020684069C04340070DD50098F5
:100FA000F5E727E044F8305F6773A573206940F0E8
:100FB0002000206162B625731CE02068016841F4BE
:100FC0000071016020680069616A0870606A401CF5
:100FD0006062218D491E2185618D491E618562B641
:100FE00021680969017025E032464946204601F032
:100FF0008FF910B10120BDE8F88F20680069616A9F
:101000000870606A401C6062208D401E81B221859C
:10101000608D401E608520684269D243520712D419
:10102000032903D1016821F480610160206800690F
:10103000616A0870606A401C6062208D401E2085D5
:10104000608D401E6085208D00287FF465AF84F898
:101050003D7084F83E5084F83C50CCE70220CAE74B
:10106000020010000000FFFF040001000C0000203F
:101070002DE9F84F1F4690468A460446DDF8289031
:10108000FFF704FE054694F83D0020287FD1192380
:10109000012240492046009501F094F8002876D1BD
:1010A00094F83C00012872D0012084F83C002068AC
:1010B0000168C90703D1016841F00101016020689E
:1010C000016821F400610160212084F83D001020B6
:1010D00084F83E0000262664C4F824806785608D6D
:1010E00020852D48E0622B464A465146204600F0B6
:1010F000EFFF90B9206841698069009036E02A4688
:101100004946204601F03CF950B1206C042804D136
:101110002068016841F4007101600120BDE8F88F8A
:10112000606A216800780861606A401C6062618DB5
:10113000491E6185218D491E89B221852268536926
:10114000DB435B070BD451B100781061606A401C2F
:101150006062608D401E6085208D401E20852A467D
:101160004946204601F002F80028CED1208D002803
:10117000C5D154F83D0B016841F400710160202095
:1011800004F81E09E67766770020C7E7FFE702202C
:10119000C4E70000020010000000FFFF30B585B07A
:1011A000002100910191029103911E4D03681E4C94
:1011B000122103221D48AB4216D1A36943F0080354
:1011C000A361A369039203F008030493C023CDE94C
:1011D00000316946FFF760FCE06940F40010E0610F
:1011E000E06900F4001019E0114DAB4217D1A3697A
:1011F00043F00803A361A369039203F00803049377
:101200004FF44063CDE900316946FFF745FCE069E2
:1012100040F48000E061E06900F48000049005B0D3
:1012200030BD00000054004000100240000C01409E
:10123000005800400248816802781144816070477C
:1012400000000020074810B5016841F0100101605E
:10125000032000F075F80F2000F006F800F024F8E5
:10126000002010BD0020024070B50D4D04464FF423
:101270007A712878B1FBF0F00A490968B1FBF0F007
:1012800000F0DCFA48B9102C07D200222146501E8B
:1012900000F036F800206C6070BD012070BD0000C9
:1012A000000000200C0000200C4808B5816941F0C6
:1012B00001018161816901F001010091C16941F081
:1012C0008051C161C06900F08050009004484168BD
:1012D00021F0E06141F08061416008BD00100240F2
:1012E00000000140002809DB00F01F0201219140AD
:1012F0004009800000F1E020C0F8001170470000B4
:10130000F0B40E4B1B680C46C3F30223C3F1070570
:10131000042D00D90425191D072901D2002300E05E
:10132000DB1E012606FA05F1491E214099409E4028
:10133000761E16403143F0BC01F045BE0CED00E0D6
:10134000064900F0070208684FF6FF03184040EA1C
:101350000220034A10430860704700000CED00E0D3
:101360000000FA052DE9F0470F46050061D0434E15
:10137000306800F00700B84209D2306820F007005A
:1013800038433060306800F00700B84251D1286817
:101390003B4C810712D5400703D5606840F4E060FC
:1013A00060602878000703D5606840F46050606092
:1013B0006068A96820F0F000084360602878C007E2
:1013C00028D06868012810D02168022810D0890729
:1013D00000292EDA616821F0030101436160FFF703
:1013E00055FC804641F288390DE021688903EFE71A
:1013F0008901EDE7FFF74AFCA0EB0801494502D956
:101400000320BDE8F0876068696800F00C00B0EB6D
:10141000810FEFD1306800F00700B8420BD9306877
:1014200020F0070038433060306800F00700B84211
:1014300001D00120E5E72878400705D56068E96814
:1014400020F4E060084360602878000706D56068F3
:10145000296920F4605040EAC100606000F038F86B
:101460006168084AC1F30311515CC840064908602D
:1014700006480068FFF7F8FE0020C2E7002002409F
:1014800000100240FE3500080C000020040000207F
:101490000448054900684968044AC1F30221515CC7
:1014A000C84070470C000020001002400E360008B3
:1014B0000448054900684968044AC1F3C221515CE7
:1014C000C84070470C000020001002400E36000893
:1014D0000E4A51680E4801F00C03042B11D0082B62
:1014E0000FD10C48C1F38343C903C05C0AD55168CE
:1014F000084AC1F34041921E515C054A5043B0FB7B
:10150000F1F0704704494843704700000010024062
:1015100000127A00EE35000800093D002DE9F84F71
:10152000040070D02078C04DC00749D06868C0F36F
:101530008100012807D06868C0F38100022809D122
:101540006868C00306D52868800339D5606800281C
:10155000E7D035E06068B0F5803F0BD010B1B0F552
:10156000A02F11D0286820F480302860286820F44B
:10157000802002E0286840F480302860606890B1E4
:10158000FFF784FB06460AE0286840F480202860C4
:10159000F0E700BFFFF77AFB801B642873D8286848
:1015A0008003F7D50CE0FFF771FB064605E000BFAE
:1015B000FFF76CFB801B6428F0D828688003F7D401
:1015C00020789A4E80074FF001094FF0000839D576
:1015D000686810F00C0F07D06868C0F3810002281B
:1015E00009D16868C00306D42868800714D520692B
:1015F000012808D110E02069B0B1C6F80090FFF7CB
:1016000045FB074605E00AE1FFF740FBC01B022847
:10161000C4D828688007F7D52868616920F0F800E9
:1016200040EAC10028600DE0C6F80080FFF72EFBFD
:10163000074604E0FFF72AFBC01B022823D82868CE
:101640008007F7D4207800072CD57948A169D9B153
:10165000C0F80090FFF71AFB074604E0FFF716FBFF
:10166000C01B02280FD8686A8007F7D571484FF46D
:10167000FA510068B0FBF1F0009000BF0098411EE5
:101680000091FAD20EE080E0C0F80080FFF7FEFA89
:10169000074604E0FFF7FAFAC01B022875D8686A0B
:1016A0008007F7D42078400760D5E8690027C0009C
:1016B00008D4E86940F08050E861E869012700F04B
:1016C000805000905C480168C90513D401688346C6
:1016D00041F480710160FFF7D9FA824606E000BF4D
:1016E000FFF7D4FAA0EB0A0064284ED8DBF800001C
:1016F000C005F5D5E06801280AD008B1052813D047
:10170000286A20F001002862286A20F0040002E024
:10171000286A40F001002862E06841F2883B98B1F5
:10172000FFF7B4FA82460BE0286A40F00400286212
:10173000EEE700BFFFF7AAFAA0EB0A0159455AD815
:10174000286A8007F6D50CE0FFF7A0FA824605E08C
:10175000FFF79CFAA0EB0A0159454CD8286A80078C
:10176000F6D41FB1E86920F08050E861E06988B3E1
:101770006968C1F38101022944D00228C6F860805B
:1017800004D0FFF783FA044638E034E0FFF77EFA2E
:10179000074604E0FFF77AFAC01B02282BD8286816
:1017A0008001F7D4206AB0F5803F05D16868A16850
:1017B00020F4003008436860D4E9080108436968F0
:1017C00021F4741108436860C6F86090FFF75EFA70
:1017D000044606E025E000BFFFF758FA001B022888
:1017E00009D828688001F7D51BE000BFFFF74EFA43
:1017F000001B022802D90320BDE8F88F2868800169
:10180000F4D40EE00128F7D06868226A00F4803131
:10181000914204D1616A00F47010884201D0012025
:10182000EAE70020E8E70000001002400000424222
:10183000800442420C0000200070004010B5401EA1
:10184000B0F1807F01D3012010BD4FF0E024606132
:101850000F21601701F0B7FB0020A0610720206175
:10186000002010BD7047704770B590F83C20012AE9
:1018700026D0012480F83C40022280F83D200368F5
:101880005A689D6822F070060A6832435A600D4B10
:1018900002689A4208D0B2F1804F05D00A4B9A42B2
:1018A00002D00A4B9A4204D1496825F080031943BB
:1018B000916080F83D40002180F83C10084670BDE2
:1018C000022070BD002C01400004004000080040D0
:1018D00010B5040003D094F83D0010B107E00120DA
:1018E00010BD002084F83C00204600F01FF80220C4
:1018F00084F83D00211D206801F0CAF9012084F818
:10190000460084F83E0084F83F0084F8400084F8E4
:10191000410084F8420084F8430084F8440084F8CD
:10192000450084F83D00002010BD000008B50068A7
:10193000B0F1804F12D10A48C16941F00101C16183
:10194000C069002200F00100009011461C20FFF742
:10195000D7FCBDE808401C20FFF7C4BC08BD000050
:101960000010024070B5044690F83C0000250128A4
:1019700017D0012684F83C60022084F83D002068DE
:10198000826822F0770222F47F4282600868502841
:1019900038D00DDC20284FD005DC90B3102811D1B1
:1019A0004AE0022070BD302846D040280AD13BE0F2
:1019B00060282FD070280DD0B0F5805F03D0B0F52F
:1019C000005F12D0012584F83D60002084F83C00BF
:1019D000284670BDCB68D1E90121206801F08EF95D
:1019E0002068816841F0770109E0CB68D1E90121E5
:1019F000206801F083F92068816841F480418160AA
:101A0000E1E719E0CA684968206801F089F95021C6
:101A1000206806E0CA684968206801F092F96021F0
:101A2000206801F075F9CEE7CA684968206801F0BE
:101A300077F940212068F4E7226801461046F0E774
:101A4000704770B50446006801694FF00005C9434E
:101A5000890715D4C168C943890711D4E91E0161FA
:101A600001202077206880698007204602D0FFF798
:101A7000E7FF04E000F098F8204600F096F825779C
:101A800020680169C943490717D4C168C943490798
:101A900013D46FF00401016102202077206880696F
:101AA00010F4407F204602D0FFF7CAFF04E000F0A8
:101AB0007BF8204600F079F8257720680169C94352
:101AC000090716D4C168C943090712D46FF0080189
:101AD0000161042020772068C0698007204602D079
:101AE000FFF7AEFF04E000F05FF8204600F05DF87D
:101AF000257720680169C943C90617D4C168C9435D
:101B0000C90613D46FF01001016108202077206806
:101B1000C06910F4407F204602D0FFF791FF04E037
:101B200000F042F8204600F040F82577206801696F
:101B3000C943C90708D1C168C943C90704D1891E6F
:101B40000161204600F032F820680169C9430906A6
:101B500009D4C168C943090605D46FF08001016149
:101B60002046FFF77FFE20680169C943490609D472
:101B7000C168C943490605D46FF0400101612046A0
:101B800000F01CF820680169C94389060BD4C168BC
:101B9000C943890607D46FF0200101612046BDE8E2
:101BA0007040FFF760BE70BD7047704702498842C1
:101BB00001D100F0EDBF704734010020704770473D
:101BC00070470000F8B5016804460868CA684B69A8
:101BD00010F00F0F4FF0000559D003F0010602F48A
:101BE0009077374365D0C10705D0D10503D5616C27
:101BF00041F001016164410705D5D90703D0616C4B
:101C000041F002016164810705D5D90703D0616CF9
:101C100041F004016164010707D502F0200131435E
:101C200003D0616C41F008016164616C00293AD015
:101C3000800604D5900602D5204601F0C3F820683E
:101C40004069616CC0F38010090700D460B320467E
:101C500001F091F820684069400621D520681430D1
:101C600050E8001F21F0400140E80012002AF5D1A1
:101C7000E06BA8B16D494163E06BFEF7C1FE00283F
:101C800011D0E06B416B01B0BDE8F040084783061E
:101C90000FD593060DD52046BDE8F84001F092B867
:101CA0002046FFF78DFFF8BD2046FFF789FF6564EA
:101CB000F8BD266B2023012E7CD1C6067AD5D60628
:101CC00078D508684868009048694FF002064006D9
:101CD00040D5E16B086840680004000CE8D0A28D94
:101CE0008242E5D9E085886920282DD020680C3013
:101CF00050E8001F21F4807140E80012002AF5D15D
:101D00002068143050E8001F21F0010140E8001263
:101D1000002AF5D12068143050E8001F21F040015E
:101D200040E80012002AF5D184F84230256320688B
:101D30000C3050E8001F21F0100140E80012002A8A
:101D4000F5D1E06BFEF738FE6663A08DE18D401A99
:101D500081B22AE0A08DE18D401A81B2E08D002889
:101D6000A6D00029A4D022680C3252E8000F20F43B
:101D7000907042E80007002FF5D12068143050E839
:101D8000002F22F0010240E80027002FF5D184F84F
:101D90004230256320680C3050E8002F22F01002FA
:101DA00040E80023002BF5D166632046FFF707FFCC
:101DB000F8BDFFE705062BD5150629D594F8410097
:101DC0002128F5D1A068B0F5805F01D12069B0B1BC
:101DD000206A411C2162216800784860E08C401E26
:101DE0000004000CE084E3D12068C16821F0800188
:101DF000C1602068C16841F04001C160D8E7206A35
:101E00000088C0F308004860206A801C2062E5E773
:101E10004006CDD55006CBD5CA68204622F04002F8
:101E2000CA6084F8413000F0C3F8C1E7672D0008AC
:101E300070B5040004D094F84100002510B106E00C
:101E4000012070BD84F84050204600F023F8242083
:101E500084F841002068C16821F40051C160204627
:101E600001F012F82068016921F4904101612068B5
:101E7000416921F02A0141612068C16841F40051A3
:101E8000C1606564202084F8410084F842006563E5
:101E9000002070BD30B585B00024009401940294F8
:101EA00003940068184988422CD11848816941F48C
:101EB00080418161816901F480410491816941F02F
:101EC000040181618069124D00F0040004904FF418
:101ED000007000900220019003200390694628467C
:101EE000FEF7DAFD2815CDE900046946284602947C
:101EF000FEF7D2FD002211462520FFF701FA25202A
:101F0000FFF7F0F905B030BD003801400010024085
:101F10000008014070472DE9F843044690F841005D
:101F20001F4616460D46202802D00220BDE8F88341
:101F30007DB176B100206064212084F84100FEF775
:101F4000A5FEA6848046E684A068B0F5805F02D036
:101F500003E00120EAE7206910B12E4600250EE0DB
:101F600000260CE08021204600F0EAFFA0B9AEB1C7
:101F700016F8010B21684860E08C401EE084E08C7C
:101F800043464FF0000200970028EBD14FF040018C
:101F9000204600F0D5FF30B10320C7E735F8020B2B
:101FA000C0F30800E6E7202084F841000020BDE7E8
:101FB0007047FEE701684A69D24352050FD46FF4B7
:101FC00080624A61002140F8301F202242738173F1
:101FD000026942F00402026101730120704700208F
:101FE000704700002DE9F84F0446C06A1E4693462C
:101FF0000D4621680A6842F480620A60082807D00A
:10200000012805D010F5803F02D0206B112804D1A3
:102010002068016841F4807101604FF001195B464E
:10202000002249462046009600F0CCF84FF4007894
:1020300040B120680068C00501D5C4F84080032085
:10204000BDE8F88F2069DFF884A0B0F5804F0FD08D
:102050000620216800EAD51747F0F00008613346F2
:102060005A460AF10601204600F0F4F858BB03E096
:10207000E8B240F001001CE02168E8B20861334694
:102080005A465146204600F0E5F8E0B9206841691B
:1020900081690091016841F4807101605B46002212
:1020A00049462046009600F08DF80028C1D147F03F
:1020B000F1002168086133465A465146204600F037
:1020C000C9F80028BCD00120BAE7000002000100D6
:1020D000F8B50446C06A1E460D461746082807D0C4
:1020E000012805D010F5803F02D0206B122804D1C2
:1020F0002068016841F480710160134600224FF0AE
:1021000001112046009600F05DF840B1206800689B
:10211000C00502D54FF4007020640320F8BD20698B
:10212000B0F5804F0ED00620216800EAD51040F0AF
:10213000F000086133463A460B49204600F08AF821
:1021400078B902E005F0FE0000E0E8B2216808611D
:10215000054933463A46891F204600F07BF800289F
:10216000DCD00120F8BD00000800010070B5164663
:102170000D4604461EE02046FFF71CFF08B1012073
:1021800070BD681C16D0FEF781FD801BA84200D8E8
:1021900085B920684069C04340070BD5002044F84A
:1021A000300F20216173A073216941F0200121616A
:1021B0002073E4E720684069C0434007DBD4002077
:1021C00070BD00002DE9F047984617460D460446BD
:1021D000C1F30746DDF820902AE000BFB8F1FF3FC9
:1021E00026D0FEF753FDA0EB0901414502D8B8F116
:1021F000000F1DD12068012E16D0806925EA00004D
:102200000004000C12D00020B84211D1002044F884
:10221000300F20216173A073216941F020012161F9
:1022200020730120BDE8F0874069E7E70120EBE774
:102230002068012E0AD0806925EA00000004000C05
:1022400006D00020B842C9D00020EBE74069F3E790
:102250000120F7E72DE9F047984616460D4604465B
:102260004FF000094FF0200AC1F3074723E0206830
:102270004069C043400515D42068016841F40071ED
:10228000016021686FF480604861C4F8309084F880
:102290003DA084F83E90216C41F00401216484F853
:1022A0003C9021E0701C06D0FEF7F0FCA0EB08008B
:1022B000B04203D816B1012F1FD021E02068012FB2
:1022C00015D0806925EA00000004000C18D000BF7A
:1022D00044F8309F84F80DA084F80E90216941F0F5
:1022E0002001216184F80C900120BDE8F08740694D
:1022F00025EA00000004000CEAD12068406901E0F2
:102300002068806925EA00000004000CAFD1ECE7EA
:102310002DE9F041002590460E460446202728E08E
:102320004069C043C0060CD454F8301B6FF0100055
:10233000486144F810596777A577206A20622577AD
:1023400014E0FEF7A3FCA0EB0800B04200D886B969
:1023500020684069C04340060BD544F8305F67737E
:10236000A573206940F02000206125730120BDE89D
:10237000F08120684169C9434906D1D40020F6E7BD
:1023800070B516460D4604461EE02046FFF712FEC5
:1023900008B1012070BD681C16D0FEF777FC801BC9
:1023A000A84200D885B920684069C04300060BD513
:1023B000002044F8300F20216173A073216941F09F
:1023C000200121612073E4E720684069C0430006D2
:1023D000DBD4002070BD00002DE9F041002425462B
:1023E00000F0AEF8194F002240213846FEF749FCB4
:1023F000052000F0C5FF0126012240213846FEF7E6
:1024000040FC052000F0BCFF80213846FEF734FC7C
:10241000012813D0C4F1070006FA00F0854300221A
:1024200040213846FEF72DFC052000F0A9FF641C72
:10243000E4B2082CE0D32846BDE8F081C4F10701DE
:1024400006FA01F02843C5B2E9E7000000080140A0
:102450002DE9F0470024254600F084F8194E4FF48A
:102460008047002239463046FEF70BFC052000F07D
:1024700087FF4FF400494FF00108012239463046EA
:10248000FEF7FFFB052000F07BFF49463046FEF7D4
:10249000F3FB0128C4F1070108FA01F00FD08543CE
:1024A000002239463046FEF7ECFB052000F068FFBD
:1024B000641CE4B2082CE0D32846BDE8F08728432A
:1024C000C5B2EDE7001001402DE9F0470024254694
:1024D00000F05AF8194E4FF4804700223946304632
:1024E000FEF7CFFB052000F04BFF4FF400494FF003
:1024F0000108012239463046FEF7C3FB052000F0F3
:102500003FFF49463046FEF7B7FB0128C4F10701FB
:1025100008FA01F00FD08543002239463046FEF715
:10252000B0FB052000F02CFF641CE4B2082CE0D3C3
:102530002846BDE8F0872843C5B2EDE7000C01400E
:102540000648802101600021416001218160032152
:10255000C16001460248FEF79FBA0000C401002096
:102560000008014006484FF400410160002141602D
:10257000012181600321C16001460248FEF78CBA47
:10258000D40100200010014006484FF400410160D2
:1025900000214160012181600321C16001460248A0
:1025A000FEF77ABAE4010020000C014005488021C2
:1025B00001600121416081600321C1600146024840
:1025C000FEF76ABAC40100200008014006484FF433
:1025D000004101600121416081600321C160014629
:1025E0000248FEF759BA0000D40100200010014053
:1025F00006484FF4004101600121416081600321E0
:10260000C16001460248FEF747BA0000E40100201D
:10261000000C01402DE9F04107460024FFF7C6FFFA
:10262000194D002280212846FEF72BFB0022402175
:102630002846FEF726FB052000F0A2FE5FF001060B
:10264000C4F1070106FA01F0384201D0012200E08E
:10265000002280212846FEF714FB052000F090FEA2
:10266000012240212846FEF70CFB052000F088FEE1
:10267000002240212846FEF704FB641CE4B2082C2B
:10268000DED3BDE8F0810000000801402DE9F047ED
:1026900007460024FFF79AFF1C4D4FF40046002226
:1026A00031462846FEF7EDFA4FF4804900224946AC
:1026B0002846FEF7E6FA052000F062FEB2464FF02B
:1026C00001084E46C4F1070108FA01F0384201D072
:1026D000012200E0002251462846FEF7D2FA0520EA
:1026E00000F04EFE012231462846FEF7CAFA0520C8
:1026F00000F046FE002231462846FEF7C2FA641C6E
:10270000E4B2082CDED3BDE8F087000000100140E1
:102710002DE9F04707460024FFF76AFF1C4D4FF4F0
:102720000046002231462846FEF7ABFA4FF48049B6
:10273000002249462846FEF7A4FA052000F020FEB4
:10274000B2464FF001084E46C4F1070108FA01F005
:10275000384201D0012200E0002251462846FEF70F
:1027600090FA052000F00CFE012231462846FEF7C3
:1027700088FA052000F004FE002231462846FEF7C4
:1027800080FA641CE4B2082CDED3BDE8F0870000B8
:10279000000C014010B5FFF709FF104C0122802109
:1027A0002046FEF76EFA012240212046FEF769FA24
:1027B000052000F0E5FD002280212046FEF761FAA9
:1027C000052000F0DDFD002240212046FEF759FAE9
:1027D000BDE81040052000F0D3BD00000008014016
:1027E00070B5FFF7F3FE0122104DD40321462846B1
:1027F000FEF747FA0122960331462846FEF741FAD2
:10280000052000F0BDFD002221462846FEF739FADA
:10281000052000F0B5FD002231462846FEF731FACA
:10282000BDE87040052000F0ABBD00000010014085
:1028300070B5FFF7DDFE0122104DD4032146284676
:10284000FEF71FFA0122960331462846FEF719FAD1
:10285000052000F095FD002221462846FEF711FADA
:10286000052000F08DFD002231462846FEF709FACA
:10287000BDE87040052000F083BD0000000C014061
:1028800070B5FFF7B5FE114D4FF40044002221460C
:102890002846FEF7F6F96610002231462846FEF774
:1028A000F0F9052000F06CFD012231462846FEF7C4
:1028B000E8F9052000F064FD012221462846FEF7D4
:1028C000E0F9BDE87040052000F05ABD000C014061
:1028D00070B50024FFF734FE0C4D0122402128463C
:1028E000FEF7CFF9052000F04BFD80212846FEF7CA
:1028F000C3F9012800D10124002240212846FEF717
:10290000C0F9052000F03CFD204670BD00080140E4
:1029100070B50024FFF726FE01220D4D96033146C7
:102920002846FEF7AEF9052000F02AFD7100284682
:10293000FEF7A2F9012800D10124002231462846E1
:10294000FEF79FF9052000F01BFD204670BD00003A
:102950000010014070B50024FFF716FE01220D4D56
:10296000960331462846FEF78CF9052000F008FD55
:1029700071002846FEF780F9012800D101240022C9
:1029800031462846FEF77DF9052000F0F9FC204687
:1029900070BD0000000C01402DE9F04786B0002416
:1029A0002D480094019402940394816941F0100130
:1029B0008161816901F010010491816941F0200178
:1029C0008161816901F020010491816941F0040174
:1029D0008161816901F004010491816941F008017C
:1029E00081618069DFF8748000F008004FF4404591
:1029F0000490002229464046FEF743F9DFF8609034
:102A00000022C0214846FEF73CF9DFF858A04CF2FE
:102A10003007002239465046FEF733F9009502266A
:102A200001250396CDE9015469464046FEF734F886
:102A3000C020CDE90005CDE9024669464846FEF7CB
:102A40002BF800970396CDE9015469465046FEF7EE
:102A500023F806B0BDE8F0870010024000100140E6
:102A600000080140000C01400D4810B50B49016001
:102A70000C49416000214FF480428160C0E903129B
:102A800041618161C1610162FEF706F9002803D04E
:102A9000BDE81040FDF787BF10BD000000540040A6
:102AA0008C000020A08601000D4810B50B49016084
:102AB0000C49416000214FF480428160C0E903125B
:102AC00041618161C1610162FEF7E6F8002803D02F
:102AD000BDE81040FDF767BF10BD00000058004082
:102AE000E0000020A086010010B586B00024174841
:102AF000009401940294039404944FF0804105944F
:102B0000016041F61F41C0E901144FF4A671C0E90C
:102B100003148461FEF7DCFE08B1FDF744FF4FF4B7
:102B20008050009069460948FEF71CFF08B1FDF788
:102B30003AFF049404A905480594FEF795FE002881
:102B400001D0FDF730FF06B010BD000034010020B9
:102B50000C4810B50A4901604FF4E1314160002191
:102B600081600C22C160C0E904128161C161FFF77C
:102B70005FF9002803D0BDE81040FDF714BF10BD79
:102B8000003801407C010020FEE7FEE770477047F7
:102B900000B58BB0A5208DF800001F491E20ADF8B0
:102BA000010008788DF80300401C08700521684674
:102BB00000F03CFA40F20230ADF8050000F0B4FC41
:102BC0000DF10701FDF7F1FE00F0DEFC0DF10B0148
:102BD000FDF7EBFE00F082FC0DF10F01FDF7E5FEC5
:102BE00000F0E8FB0DF11301FDF7DFFE00F004FC3F
:102BF0000DF11701FDF7D9FE2721684600F002FA12
:102C00003223272269460548FFF785F9002000F0A6
:102C1000ABFB0BB000BD00002A0000207C010020AF
:102C2000FEF708BB30B58FB028216846FDF791FA52
:102C300014210AA8FDF78DFA01210804CDE900103E
:102C40000024029402250491CDE907504FF4E010CE
:102C500009906846FEF762FC08B172B6FEE70F20E5
:102C6000CDE90A054FF48060CDE90C4002210AA8A5
:102C70000E94FEF777FB002801D072B6FEE70FB086
:102C800030BD70470148FEF7DCBE00003401002073
:102C9000F0B50268164B174C174D4FF0804798421D
:102CA00005D0B84203D0A04201D0A84203D122F0FF
:102CB00070064A683243984205D0B84203D0A04219
:102CC00001D0A84203D122F44074CA6822434C695F
:102CD00022F08002224302608A68C2620A6882622D
:102CE000984201D10969016301214161F0BD0000F1
:102CF000002C0140000400400008004010B584682A
:102D000042EA032224F47F440A432243826010BD36
:102D1000826822F070020A4342F007018160704726
:102D200010B5036A046A24F001040462846924F083
:102D3000F00444EA021423F00A020A4384610262A6
:102D400010BD10B5036A046A24F01004046284699B
:102D500023F0A00324F4704444EA023243EA011150
:102D60008261016210BD10B5406A0021C185C18435
:102D7000FEF726FF10BD01680C3151E8002F22F448
:102D8000907241E80023002BF5D10168143151E81D
:102D9000002F22F0010241E80023002BF5D1016B46
:102DA000012909D101680C3151E8002F22F01002ED
:102DB00041E80023002BF5D1202180F842100021AA
:102DC0000163704708B590F84210222901D0022013
:102DD00008BD82684FF480539A4201D1016921B144
:102DE000816A9A421BD04AB10AE00268816A52683D
:102DF000C2F308020A80816A891C08E0026972B184
:102E00000268526802F07F020A70816A491C81627E
:102E1000C18D491E0904090CC18503D01BE002685D
:102E20005268F1E70168CA6822F02002CA600168AE
:102E3000CA6822F48072CA6001684A6922F00102FD
:102E40004A61202180F8421000214163026B012A6F
:102E500003D0FFF75FF8002008BD016301680C3163
:102E600051E8002F22F0100241E80023002BF5D199
:102E700001680A68D20602D50A6849680091818D06
:102E8000FEF79DFEE7E7000070B5044600680169A3
:102E9000E26821F44051114301612169A0680843AF
:102EA000616908432168CA6841F20C639A4302438E
:102EB000CA6020684169A26921F4407111434161EF
:102EC0001E492068884202D1FEF7F2FA01E0FEF7BF
:102ED000DFFA00EBC00101EB0012606864218000A2
:102EE000B2FBF0F3B3FBF1F36FF018067343B2FBE0
:102EF000F0F5B2FBF0F605EB8305322303EB051585
:102F0000B5FBF1F5B6FBF1F605F0F00505EB06159E
:102F1000B2FBF0F6B2FBF0F0B0FBF1F06FF018028C
:102F2000504306EB800003EB0010B0FBF1F021688A
:102F300000F00F002844886070BD00000038014098
:102F40002DE9F041984617460E460446069D27E0B7
:102F5000681C25D02DB1FDF799FEA0EB0800A84212
:102F60001ED920680C3050E8001F21F4D07140E8D1
:102F70000012002AF5D12068143050E8001F21F01B
:102F8000010140E80012002AF5D1202084F8410018
:102F900084F84200002084F840000320BDE8F0815E
:102FA0002068006836EA000004D00020B842CFD084
:102FB0000020F3E70120F9E70148FEF703BE000017
:102FC0007C010020FEE70907090E002804DB00F160
:102FD000E02080F80014704700F00F0000F1E020BE
:102FE00080F8141D704702E008C8121F08C1002AAB
:102FF000FAD170477047002001E001C1121F002A7A
:10300000FBD1704730B50C4605000CD0022C0AD914
:103010000548A11E0288284600F010FA291901F877
:10302000020D000A487030BD2800002030B50C4663
:10303000050008D0022C06D9FF22611E00F014FA08
:10304000291901F8010C30BD70B500F037F8184CA3
:1030500005462169FDF7DAF84FF40002904201DBE2
:10306000014601E080F00041124B99420BDD904295
:1030700002DB4FF0FF3000E00120FDF7E8FA616964
:10308000FDF772F8606128462561FDF7EEFA00222F
:10309000094BFDF756FA06460D466069FDF7E5FA5D
:1030A00032462B46FDF734F9BDE87040FDF7F0BA23
:1030B0001000002000005843008076403EB50020FC
:1030C00001900B200C2400908DF808406C2102AA7E
:1030D00001230C48FDF7CCFF01AA02236D2109480A
:1030E0000094FDF79DFEBDF8040040BAFDF7B8FA64
:1030F0006142FDF701F903B00349BDE83040FDF737
:103100008BB80000E00000200000B44370B500F070
:1031100037F8184C05462169FDF778F84FF400029E
:10312000904201DB014601E080F00041124B9942E0
:103130000BDD904202DB4FF0FF3000E00120FDF795
:1031400086FA6169FDF710F8606128462561FDF790
:103150008CFA0022094BFDF7F4F906460D4660692A
:10316000FDF783FA32462B46FDF7D2F8BDE87040F2
:10317000FDF78EBA2C0000200000584300807640F6
:103180003EB5002001900B200C2400908DF80840E3
:103190006C2102AA01230C48FDF76AFF01AA022351
:1031A0006D2109480094FDF73BFEBDF8040040BACC
:1031B000FDF756FA6142FDF79FF803B00349BDE8F9
:1031C0003040FDF729B800008C0000200000B44317
:1031D0002DE9F0410C20FDF77BFB04460D20FDF7A7
:1031E00077FB40EA0420FDF73BFA194C05462168BD
:1031F000FDF70CF84FF400070646B84201DA86F0F6
:103200000040B0F18A4F0EDD6068FDF72EFABE4235
:103210004FF0000201DB0F4B00E00F4BFDF778F899
:10322000FDF736FA606028462560FDF71EFA6FF05C
:103230000B02FDF7F5F906460D466068FDF715FA35
:1032400032462B46FDF764F8BDE8F041FDF720BAA1
:103250006C0000200000F0BF0000F03F2DE9F041BD
:10326000FDF794FBFDF7FCF9194C05466168FCF786
:10327000CDFF4FF400070646B84201DA86F0004061
:10328000B0F18A4F0EDDA068FDF7EFF9BE424FF0B6
:10329000000201DB0F4B00E00F4BFDF739F8FDF7A3
:1032A000F7F9A06028466560FDF7DFF96FF00B02C3
:1032B000FDF7B6F906460D46A068FDF7D6F9324689
:1032C0002B46FDF725F8BDE8F041FDF7E1B9000018
:1032D000740000200000F0BF0000F03F2DE9F04135
:1032E0000C20FDF7B9FA04460D20FDF7B5FA40EAC7
:1032F0000420FDF7B5F9194C05462168FCF786FF57
:103300004FF400070646B84201DA86F00040B0F1FB
:103310008A4F0EDD6068FDF7A8F9BE424FF000024B
:1033200001DB0F4B00E00F4BFCF7F2FFFDF7B0F9AC
:10333000606028462560FDF798F96FF00B02FDF7F5
:103340006FF906460D466068FDF78FF932462B4649
:10335000FCF7DEFFBDE8F041FDF79AB964000020FC
:103360000000F0BF0000F03F70B50546FDF78EFC91
:103370004FEA0004FDF78AFC001BA842FAD370BD97
:1033800070B54FF0E024002265690949A369096816
:103390004843A1699942FCD002D2A3EB010302E0A9
:1033A000A5EB010633441A440B468242F1D370BDAB
:1033B0004400002070B50D4C0D4D206838B1FFF76A
:1033C00043FE2946FCF75AFFA06000202060FFF76B
:1033D0003BFE2946FCF752FFA168FCF717FF0549A1
:1033E0006060FCF719FFE06070BD00001000002075
:1033F00048E13A409A197A4370B50D4C0D4D20685A
:1034000038B1FFF783FE2946FCF738FFA0600020A3
:103410002060FFF77BFE2946FCF730FFA168FCF730
:10342000F5FE05496060FCF7F7FEE06070BD000046
:103430002C000020295C1F400000B4C310B558B117
:10344000084C491E0BD310F8013B5340DBB234F853
:10345000133083EA1222F4E74FF6FF7010BD1046D6
:1034600010BD00001637000810B5054C04E000BF81
:1034700010F8013B5340E25C491EF9D2104610BDE2
:103480001636000870B50A4C206800280ED0FFF7E9
:1034900025FF084D2946FCF7BFFE6060FFF798FE48
:1034A0002946FCF7B9FEA0600020206070BD000036
:1034B000480000200000B443FDF7C4FEFFF7B2FB54
:1034C000FFF76AFAFFF7F0FAFFF742FBFFF7CCFAD3
:1034D000FFF70AFBFFF7D6FFFEE7000010B50E4C22
:1034E000206820B1FFF7BAFEE06000202060FFF7FF
:1034F000B5FE6061E168FCF789FE2061FDF7B5F873
:10350000064A074BFDF71DF80022064BFCF7A7FF04
:10351000BDE81040FDF7BCB87400002085EB51B841
:103520001E850F400080764070B5FFF7D7FE124D24
:103530002946FCF771FE114CE060FFF749FE294671
:10354000FCF76AFE2061A168FCF760FE0546616831
:10355000E068FCF75BFE2946FCF706FE4FF0FF3102
:10356000FCF7CAFEFDF781F8054A064BFCF7E9FFB8
:10357000FDF78EF8A06170BD0000B4434800002044
:103580008716D9CEF7530D4070B5FFF7A7FE144D3F
:103590002946FCF741FE134CE060FFF719FE29466F
:1035A000FCF73AFE2061A168FCF730FEFDF75DF8FC
:1035B00006460D466168E068FCF728FEFDF755F801
:1035C00032462B46FCF745FF4FF0FF32FDF728F857
:1035D000FDF75EF86061BDE870400349FCF71CBE72
:1035E0000000B44348000020000080BE0102020336
:1035F0000405060708090A0B0C0D0E0F1010000039
:103600000000000000000102030406070809000092
:10361000000001020304005EBCE2613FDD83C29C46
:103620007E20A3FD1F419DC3217FFCA2401E5F01A0
:10363000E3BD3E6082DC237D9FC1421CFEA0E1BF52
:103640005D0380DE3C62BEE0025CDF81633D7C2284
:10365000C09E1D43A1FF4618FAA427799BC584DAB2
:103660003866E5BB5907DB856739BAE40658194760
:10367000A5FB7826C49A653BD987045AB8E6A7F912
:103680001B45C6987A24F8A6441A99C7257B3A6444
:1036900086D85B05E7B98CD2306EEDB3510F4E1072
:1036A000F2AC2F7193CD114FADF3702ECC92D38D20
:1036B0006F31B2EC0E50AFF1134DCE90722C6D33D2
:1036C000D18F0C52B0EE326C8ED0530DEFB1F0AE04
:1036D0004C1291CF2D73CA947628ABF51749085632
:1036E000B4EA6937D58B5709EBB536688AD495CBE0
:1036F0002977F4AA4816E9B7550B88D6346A2B7592
:1037000097C94A14F6A8742AC896154BA9F7B6E8C3
:103710000A54D7896B350000891112239B32244645
:10372000AD573665BF74488CC19D5AAFD3BE6CCAC5
:10373000E5DB7EE9F7F88110080193331A22A556DC
:103740002C47B7753E64C99C408DDBBF52AEEDDAA5
:1037500064CBFFF976E802218B30100299132667BB
:10376000AF763444BD554AADC3BC588ED19F6EEB85
:10377000E7FA7CC8F5D983310A2091121803A7779C
:103780002E66B5543C45CBBD42ACD99E508FEFFB65
:1037900066EAFDD874C904428D5316619F702004F7
:1037A000A9153227BB364CCEC5DF5EEDD7FC688845
:1037B000E1997AABF3BA85520C4397711E60A1145C
:1037C0002805B3373A26CDDE44CFDFFD56ECE99825
:1037D0006089FBBB72AA06638F7214409D5122253B
:1037E000AB343006B9174EEFC7FE5CCCD5DD6AA905
:1037F000E3B8788AF19B87730E6295501C41A3351C
:103800002A24B1163807CFFF46EEDDDC54CDEBB9E4
:1038100062A8F99A708B088481951AA793B62CC276
:10382000A5D33EE1B7F04008C919522BDB3A644EEC
:10383000ED5F766DFF7C899400859BB712A6ADD2B3
:1038400024C3BFF136E0C1184809D33B5A2AE55ECC
:103850006C4FF77D7E6C0AA583B4188691972EE392
:10386000A7F23CC0B5D14229CB38500AD91B666FAC
:10387000EF7E744CFD5D8BB502A499961087AFF373
:1038800026E2BDD034C1C3394A28D11A580BE77F8C
:103890006E6EF55C7C4D0CC685D71EE597F42880CE
:1038A000A1913AA3B3B2444ACD5B5669DF78600C6C
:1038B000E91D722FFB3E8DD604C79FF516E4A99033
:1038C0002081BBB332A2C55A4C4BD7795E68E11C4C
:1038D000680DF33F7A2E0EE787F61CC495D52AA112
:1038E000A3B03882B193466BCF7A5448DD59622D2C
:1038F000EB3C700EF91F8FF706E69DD414C5ABB1F3
:1039000022A0B9923083C77B4E6AD5585C49E33D0B
:103910006A2CF11E780F00003839000800000020E2
:103920008C000000E62F0008C43900088C0000203D
:103930006C050000F62F00080100000010000000D8
:10394000000000000024F40001000000000000005E
:103950000000000000000000000000000000000067
:10396000FFFF000001000000000000000000000058
:103970000000000000000000000000000000000047
:103980000100000000000000000000000000000036
:103990000000000000000000000000000000000027
:1039A0000000000000000000000000000100000016
:1039B0000000000000000000000000000000000007
:0439C0000000000003
:04000005080000ED02
:00000001FF
